:020000040800F2
:10000000A008002065010008510E0008C50D000879
:1000100000000000000000000000000000000000E0
:10002000000000000000000000000000550E000865
:100030000000000000000000530E0008570E0008EA
:100040007701000800000000770100087701000830
:1000500077010008770100087701000877010008A0
:100060000000000077010008770100087701000810
:100070007701000877010008770100080000000000
:10008000770100080000000000000000C90E000811
:1000900000000000770100087701000877010008E0
:1000A0007701000877010008770100087701000850
:1000B00077010008000000000000000000000000C0
:1000C00000F002F800F03EF80CA030C80838241800
:1000D0002D18A246671EAB4654465D46AC4201D180
:1000E00000F030F87E460F3E0FCCB6460126334274
:1000F00000D0FB1AA246AB4633431847D00F00008E
:10010000F00F0000103A02D378C878C1FAD852072D
:1001100001D330C830C101D504680C6070470000BD
:100120000023002400250026103A01D378C1FBD813
:10013000520700D330C100D50B6070471FB51FBDFB
:1001400010B510BD00F0FAF81146FFF7F7FF00F008
:1001500083FF00F012F903B4FFF7F2FF03BC00F0D5
:1001600019F900000748804707480047FEE7FEE707
:10017000FEE7FEE7FEE7FEE704480549054A064BB1
:1001800070470000B90E0008C1000008A00200205E
:10019000A0080020A0040020A004002001E004C06A
:1001A000091F0429FBD28B0701D50280801CC907D7
:1001B00000D00270704700290BD0C30702D0027034
:1001C000401C491E022904D3830702D50280801CEB
:1001D000891EE3E70022EEE70022DFE700220309A1
:1001E0008B422CD3030A8B4211D300239C464EE052
:1001F00003460B433CD4002243088B4231D303090E
:100200008B421CD3030A8B4201D394463FE0C309BF
:100210008B4201D3CB01C01A524183098B4201D3D7
:100220008B01C01A524143098B4201D34B01C01AC2
:10023000524103098B4201D30B01C01A5241C3083A
:100240008B4201D3CB00C01A524183088B4201D3A9
:100250008B00C01A524143088B4201D34B00C01A95
:100260005241411A00D201465241104670475DE0AA
:10027000CA0F00D04942031000D34042534000222D
:100280009C4603098B422DD3030A8B4212D3FC22D6
:10029000890112BA030A8B420CD3890192118B4255
:1002A00008D3890192118B4204D389013AD092116B
:1002B00000E08909C3098B4201D3CB01C01A524126
:1002C00083098B4201D38B01C01A524143098B42EF
:1002D00001D34B01C01A524103098B4201D30B01D8
:1002E000C01A5241C3088B4201D3CB00C01A5241FD
:1002F00083088B4201D38B00C01A5241D9D24308E4
:100300008B4201D34B00C01A5241411A00D2014620
:10031000634652415B10104601D34042002B00D58A
:100320004942704763465B1000D3404201B500204C
:10033000C046C04602BD704770477047754600F022
:1003400025F8AE46050069465346C008C0008546FC
:1003500018B020B5FFF710FF60BC00274908B6466B
:100360000026C0C5C0C5C0C5C0C5C0C5C0C5C0C5C4
:10037000C0C5403D49008D46704710B50446C04693
:10038000C0462046FFF7E7FE10BD0000004870475A
:100390003C02002001491820ABBEFEE72600020007
:1003A0007047000070B5044600F0C2F80546601CB6
:1003B00002D004480078241800F0BAF8401BA0428C
:1003C000FAD370BD00000020FCB5002301259AE09F
:1003D00022462C469C4022406FD04E68012E05D00C
:1003E000022E03D0112E01D0122E16D186680327BB
:1003F000B4465E00B646B7406646BE43B446CF68D4
:100400007646B7406646374387604668A6430C7910
:10041000E406E40F9C4034434460C6685F00032454
:10042000BC40A446A6438C68BC403443C4604C68BE
:10043000022C01D0122C14D1DC08A4002418019441
:10044000266A5C07B646E60E0F24B4400096764650
:10045000A643B6460C69009EB44076462643019CEE
:10046000266204686646B4430E79B607B60FBE40EE
:10047000264306604C68E40044D59E08254CB6002F
:100480003419A446246E9E07F60E0F27B740BC43CE
:1004900005273F07B84201D1002710E01E4FB842A0
:1004A00001D101270BE01D4FB84201D1022706E020
:1004B0001B4FB84202D1032701E023E00527B740D4
:1004C000274364462766134E803634684F6894434A
:1004D000FF0300D51443346074684F689443BF032E
:1004E00000D5144374600B4C26684F689643FF0296
:1004F00000D51643266066684F689643BF0200D554
:10050000164366605B1C0A681446DA4000D05FE759
:10051000FCBD00000018024000040050000800501C
:10052000000C0050002A01D0816170478162704741
:100530000148806870470000000000200248816880
:1005400002788918816070470000002010B50848C3
:1005500000240168821511430160032000F00AF8AD
:10056000002801D0012401E000F028F8204610BD49
:100570000020024070B50F4E002431780546002956
:1005800015D07D20C000FFF729FE01460A4800680B
:10059000FFF724FE00F034FB002808D1042D06D21A
:1005A00000222946401E00F01FF8756000E001247B
:1005B000204670BD000000200C00002008B509484E
:1005C0000168012211430160006810400090054855
:1005D0004038C26B01040A43C263C06B08400090FC
:1005E00008BD00004010024010B500F00DFD10BD28
:1005F00010B50F4C21680322520291430143216040
:10060000C11FFF39FA390ED10A4806210068484354
:100610000949FFF7E3FD401C02E0002805D0401E19
:1006200061694905F9D4002010BD032010BD000008
:10063000007000400C00002040420F00F8B50F464B
:10064000060043D04D4D28684007400FB84213D2F2
:100650002868C008C00038432860FFF769FF0446D7
:1006600005E0FFF765FF011B4548814261D8286816
:100670004007400FB842F4D13068424C81070DD595
:10068000400704D5A068072109030843A060A068BB
:100690000F2109028843B1680843A0603078C00781
:1006A00032D0706801280AD002280BD000280FD061
:1006B0003449403103280ED0C969890704E0216814
:1006C000890301E021688901002906DB0120F8BDCA
:1006D00021684905F8E7096AEFE7A168C908C90078
:1006E0000143A160FFF724FF009006E0FFF720FF21
:1006F0000099411A224881421BD8A068382108403D
:100700007168C9008842F1D128684007400FB8429B
:1007100017D91A480168C908C90039430160FFF7B1
:1007200007FF054607E0FFF703FF411B144881421E
:1007300001D90320F8BD114800684007400FB842B6
:10074000F1D13078400706D5A06807210903884316
:10075000F1680843A06000F01DF8A1683C228909F7
:100760001140094A515CC906C90EC84007490860D2
:1007700007480068FFF7FEFEF8BD000000200240B9
:1007800088130000001002408C1000080C000020AC
:100790000400002010B5204CA068204A8006400FBD
:1007A00016D0A0688006410F501001290FD0A16813
:1007B0008906490F022912D0A0688006400F04283C
:1007C00023D0A0688006400F032821D0002010BD50
:1007D000206801218004400F8140104612E0E1684A
:1007E0008B07E1689B0F4906490F491C032B00D07A
:1007F0001046FFF7F3FCE1684904490E4843E168FD
:10080000490F491CFFF7EAFC10BD0120C00310BDD1
:100810007D20000210BD0000001002400024F40002
:10082000F8B504007ED020783827C007EB4D0028AB
:1008300046D0A868E96838408907890F102802D097
:1008400008280BD001E0032908D0012062680004C9
:1008500082420AD129680143296015E02868800393
:100860002ED560680028DDD02AE0052301211B0475
:1008700089049A422A6802D10A432A60EAE782433D
:100880002A60286888432860606800280CD0FFF739
:100890004FFE064604E0FFF74BFE801B642873D82A
:1008A00028688003F7D50BE0FFF742FE064604E018
:1008B000FFF73EFE801B6428F1D828688003F7D438
:1008C0002078800769D5A868E96838408A07072139
:1008D000920FC902102802D0002813D001E0022A8A
:1008E00010D0E068002846D0286888432169084372
:1008F00028602868FF21013108432860FFF718FEAF
:1009000006462CE02A68520502D5E268002A89D002
:100910006A687F231B029A4363691B021A436A6059
:10092000002800E08DE00ED1286888432169084343
:100930002860286801218004400F8140A848FFF703
:100940004DFCA8490860A8480068FFF713FE00287E
:1009500077D122E0FFF7ECFD801B02289FD82868A2
:100960004005F7D568687F2109028843616909025B
:100970000843686011E02968FF2001308143296045
:10098000FFF7D6FD064605E098E0FFF7D1FD801B96
:10099000022884D828684005F7D42078934E0007B1
:1009A0002ED5A8688006400F03280AD0A069002829
:1009B000306A16D0012108433062FFF7B9FD0746BF
:1009C0000BE0306A80071BD5A06900289FD017E094
:1009D000FFF7AEFDC01B022870D8306A8007F7D53C
:1009E0000EE0400840003062FFF7A2FD074604E039
:1009F000FFF79EFDC01B022860D8306A8007F7D43D
:100A0000207840076CD5A86800278006400F04288E
:100A100018D0E86BC00008D4E96B0120000701433F
:100A2000E963E96B01400127009171480168C9053C
:100A300019D40168821511430160FFF779FD009018
:100A40000DE083E0F06980074AD5A06800287DD0DA
:100A500046E0FFF76DFD0099401A02282ED8644841
:100A60000068C005F5D5A168012910D0042005292A
:100A7000F16911D049084900F161F1698143F161DF
:100A8000A068002816D0FFF753FD00900EE0F06933
:100A900001210843F061F3E70143F161F7E7FFF754
:100AA00047FD0099411A534881426DD8F06980078B
:100AB000F5D50EE0FFF73CFD009007E064E0FFF79E
:100AC00037FD0099411A4B4881425DD8F069800793
:100AD000F5D4002F04D0E96B012000078143E963BE
:100AE000E069002877D0A9688906490F022951D00A
:100AF00001263606022828680DD0B0432860E86831
:100B000080088000E860E8683B490840E860FFF73B
:100B10000FFD04463AE0B0432860FFF709FD0746A1
:100B200004E0FFF705FDC01B02282DD828688001CE
:100B3000F7D4616A206AA26A0843E16A120211438B
:100B40000843216B0843E9682C4A00E041E011406A
:100B50000843E860286830432860E86801210907F5
:100B60000843E860FFF7E4FC044604E0FFF7E0FC1C
:100B7000001B022808D828688001F7D52BE0FFF772
:100B8000D7FC001B022801D90320F8BD286880018A
:100B9000F5D420E00128F8D0E868226A8107890F9F
:100BA000914216D17021626A0140914211D17F2198
:100BB000A26A09020140120291420AD11F2149048E
:100BC000E26A0140914204D1400F216B4007884204
:100BD00001D00120F8BD0020F8BD00000010024047
:100BE0000024F4000C00002004000020401002400B
:100BF0000070004088130000FFFFFEEF8C80C11FD3
:100C0000094910B5401E884201D9012010BD074C8A
:100C100060610321081F00F0F7F90020A0610720A0
:100C20002061002010BD0000FFFFFF0000E000E099
:100C3000704770477047704770B504460068016997
:100C40000025C9438907002915DBC168C943890705
:100C500011D4E91E01610120207720688069800796
:100C6000204602D0FFF7E7FF04E000F0A7F8204697
:100C700000F0A5F8257720680169C943490717D412
:100C8000C168C943490713D40421C9430161022043
:100C90002077206880698005800F204602D0FFF70A
:100CA000CAFF04E000F08AF8204600F088F82577B3
:100CB00020680169C943090716D4C168C9430907F7
:100CC00012D40821C9430161042020772068C0693B
:100CD0008007204602D0FFF7AEFF04E000F06EF878
:100CE000204600F06CF8257720680169C943C906E1
:100CF00017D4C168C943C90613D41021C94301617F
:100D0000082020772068C0698005800F204602D027
:100D1000FFF791FF04E000F051F8204600F04FF893
:100D2000257720680169C943C90708D1C168C9434B
:100D3000C90704D1891E0161204600F041F82068EE
:100D40000169C943090609D4C168C943090605D424
:100D50008021C94301612046FFF76BFF20680169CC
:100D6000C943C90508D4C168C943090604D4124956
:100D700001612046FFF75CFF20680169C94349060D
:100D800009D4C168C943490605D44021C94301615A
:100D9000204600F016F820680169C943890609D485
:100DA000C168C943890605D42021C9430161204691
:100DB000FFF740FF70BD0000FFFEFFFF7047704768
:100DC00070477047FEE70000F0B587B01421684611
:100DD000FFF702FA1C48416B012631434163416B26
:100DE00031400591416B022421434163406BE7018F
:100DF000204005900520324639460007FFF792FB58
:100E0000012208211148FFF78DFB032000250090E7
:100E100005200195694602950007FFF7D5FA0520E0
:100E2000694600070097019602950394FFF7CCFAF4
:100E30000820009069460196029503940348FFF745
:100E4000C3FA07B0F0BD00000010024000040050DB
:100E5000FEE77047704710B5FFF770FB10BD10B587
:100E600092B034216846FFF7B7F9002401200D94B1
:100E70000E940F9440021094FFF7BAFB02200090EA
:100E8000C001039040200590049407946846FFF742
:100E9000C7FC002801D072B6FEE707200D900E9423
:100EA0000F94002110940DA8FFF7C8FB002801D073
:100EB00072B6FEE712B010BD01200249C00688607C
:100EC0007047000000ED00E010B50248FFF7B4FEE7
:100ED00010BD000010000020052000074169184ADD
:100EE0001140416100BF00BF00BF00BF00BF00BF95
:100EF00000BF00BF00BF00BF00BF00BF00BF00BFFA
:100F000000BF00BF4169FF2201321143416100BFB0
:100F100000BF00BF00BF00BF00BF00BF00BF00BFD9
:100F200000BF00BF00BF00BF00BF00BF00BF00BFC9
:100F300000BF00BF00BF00BF00BF00BF00BF7047C1
:100F4000FFFE0000052000074169184A1140416179
:100F500000BF00BF00BF00BF00BF00BF00BF00BF99
:100F600000BF00BF00BF00BF00BF00BF00BF00BF89
:100F700000BF00BF00BF00BF00BF00BF00BF00BF79
:100F800000BF00BF00BF00BF00BF00BF00BF00BF69
:100F90004169FF2201321143416100BF00BF00BF20
:100FA00000BF00BF00BF00BF00BF7047FFFE0000D2
:100FB00000B5052000074169FF220132114341615C
:100FC00000F044F800BD10B503460024180202D515
:100FD000FFF7B8FF01E0FFF77FFF641C5B00E4B29E
:100FE000182CF3D310BD000030B5064D002428683E
:100FF000FFF7E9FF641CE4B2782CF8D3FFF7D8FFC1
:1010000030BD00005C0000208307FF22DB0E9A4009
:101010008907090E9940002808DB830809489B00CE
:101020001B18186890430843186070470007000FAA
:101030000838830804489B001B18D869904308436C
:10104000D861704700E400E000ED00E00020401CA3
:1010500080B2FF28FBD97047FFF778FAFFF7FFFE51
:10106000FFF7B2FE074D064C2C60FFF7BDFF064EA2
:101070002C60FFF7B9FF3046FFF794F9F8E700005E
:10108000050500005C00002088130000000000003F
:101090000000000000000000000000000000000050
:1010A000000000000000000000000000010000003F
:1010B0000200000003000000040000000600000021
:1010C000070000000800000009000000EC10000804
:1010D000000000201000000004010008FC100008BF
:1010E000100000209008000020010008010000000E
:0C10F00004000000000000000024F400D8
:04000005080000C12E
:00000001FF
