:020000040800F2
:10000000604E00206D020008E1320008892D0008D2
:100010003D32000885060008A53C000800000000ED
:10002000000000000000000000000000D5010008F2
:100030005D0F000800000000190200087D34000870
:10004000870200088702000887020008870200086C
:10005000870200088702000887020008870200085C
:10006000870200088702000887020008870200084C
:100070008702000887020008E90E0008F90E000850
:10008000870200088702000887020008870200082C
:10009000870200088702000887020008870200081C
:1000A000870200088702000887020008870200080C
:1000B00087020008870200088702000887020008FC
:1000C00087020008870200088702000887020008EC
:1000D00087020008F13A000887020008870200083A
:1000E00087020008870200088702000887020008CC
:1000F00087020008870200088702000887020008BC
:1001000087020008870200088702000887020008AB
:100110008702000887020008513500086135000891
:10012000870200088702000887020008870200088B
:1001300000F002F800F03FF80AA090E8000C8244BA
:100140008344AAF10107DA4501D100F034F8AFF297
:10015000090EBAE80F0013F0010F18BFFB1A43F0A5
:100160000103184784570000A4570000103A24BF29
:1001700078C878C1FAD8520724BF30C830C144BF0C
:1001800004680C607047000000230024002500264E
:10019000103A28BF78C1FBD8520728BF30C148BFEA
:1001A0000B607047732900F02182002070471FB553
:1001B0001FBD10B510BD00F033FA1146FFF7F7FF71
:1001C00003F0DCFD00F051FA03B4FFF7F2FF03BCCB
:1001D00003F086FD224B19680868B0E8F00F80F341
:1001E0000988BFF36F8F4FF0000080F311884EF045
:1001F0000D0E70470000000006480068006880F39C
:10020000088862B661B6BFF34F8FBFF36F8F00DF10
:1002100000BF00BF08ED00E0EFF30980BFF36F8F70
:100220000F4B1A6820E9F00F106008B54FF050002E
:1002300080F31188BFF34F8FBFF36F8F04F090FBF3
:100240004FF0000080F31188BDE808401968086885
:10025000B0E8F00F80F30988BFF36F8F704700BFDD
:1002600048000020EFF305807047000009488047F0
:1002700009480047FEE7FEE7FEE7FEE7FEE7FEE788
:10028000FEE7FEE7FEE7FEE704480549054A064BA0
:1002900070470000F9340008310100086048002070
:1002A000604E0020604A0020604A00207047B2F192
:1002B00020030AD5C2F1200320FA02F001FA03F369
:1002C00021FA02F140EA0300704721FA03F04FF0EF
:1002D000000170470FB4044910B503AA029800F05A
:1002E00089F910BC5DF814FB340000202DE9F041C1
:1002F0000E460446002020622046E168884730B35D
:10030000252805D0D4E901219047206A401CF2E756
:10031000E168204600278847050018D0A5F1410074
:10032000192802D820354FF4006732462946204666
:100330002760FFF737FF40B1012804D0F61D26F0F3
:1003400007060836D8E7361DD6E72846DAE7206ADA
:10035000BDE8F08170B50C460546012A05D0287825
:10036000800600D5EA69002302E0012305E05B1C5A
:10037000934202D2E05C0028F9D1A869E618C01ABD
:10038000A861286A184428622846AFF3008004E078
:10039000D5E9012114F8010B9047B442F8D328465F
:1003A000AFF3008070BD40EA010310B59B070FD189
:1003B000042A0DD310C808C9121F9C42F8D020BAD5
:1003C00019BA884201D9012010BD4FF0FF3010BD8D
:1003D0001AB1D30703D0521C07E0002010BD10F85B
:1003E000013B11F8014B1B1B07D110F8013B11F821
:1003F000014B1B1B01D1921EF1D1184610BD032ADF
:1004000040F2308010F0030C00F0158011F8013B31
:10041000BCF1020F624498BF11F801CB00F8013B18
:1004200038BF11F8013BA2F1040298BF00F801CBDC
:1004300038BF00F8013B11F0030300F02580083AB3
:10044000C0F0088051F8043B083A51F804CBA0E80A
:100450000810F5E7121D5CBF51F8043B40F8043B5F
:10046000AFF30080D20724BF11F8013B11F801CB94
:1004700048BF11F8012B24BF00F8013B00F801CB65
:1004800048BF00F8012B704710B5203AC0F00B8030
:10049000B1E81850203AA0E81850B1E81850A0E888
:1004A0001850BFF4F5AF5FEA027C24BFB1E81850E2
:1004B000A0E8185044BF18C918C0BDE810405FEA52
:1004C000827C24BF51F8043B40F8043B08BF7047CE
:1004D000D20728BF31F8023B48BF11F8012B28BFD3
:1004E00020F8023B48BF00F8012B704702F0FF03E1
:1004F00043EA032242EA024200F002B84FF000024F
:100500000429C0F0128010F0030C00F01B80CCF125
:10051000040CBCF1020F18BF00F8012BA8BF20F893
:10052000022BA1EB0C0100F00DB85FEAC17C24BFE7
:1005300000F8012B00F8012B48BF00F8012B704791
:100540004FF0000200B5134694469646203922BF6C
:10055000A0E80C50A0E80C50B1F12001BFF4F7AFB7
:10056000090728BFA0E80C5048BF0CC05DF804EB99
:10057000890028BF40F8042B08BF704748BF20F807
:10058000022B11F0804F18BF00F8012B7047704705
:10059000704770477047000001694A1C0261087883
:1005A000704700B58FB0CDE90131002105910549B3
:1005B0007944CDE9031011466846FFF797FE0FB066
:1005C00000BD0000E5FFFFFF10B5436913B1AFF3B5
:1005D000008001E0FFF7BEFE012010BD127800F19F
:1005E00024010A7000224A700122EDE711684FF0E1
:1005F000FF32E9E7074B70B50D467B44FFF7D1FFAB
:100600000446284600F008F810B14FF0FF3070BDE6
:10061000204670BD57370000007B00F08000704717
:10062000754600F02BF8AE4605006946534620F0AB
:100630000700854618B020B5FFF726FEBDE820402C
:100640004FF000064FF000074FF000084FF0000B8E
:1006500021F00701AC46ACE8C009ACE8C009ACE841
:10066000C009ACE8C0098D46704710B50446AFF329
:1006700000802046BDE81040FFF7A6BD0048704747
:100680000048002000BFFEE72DE9F04707464FF085
:1006900000080025A946002646F003061A48B0FBCC
:1006A000F7F4032502E0E408681EC5B24FF6F070C7
:1006B000844201D9002DF6D14FF6F070844202D960
:1006C000FE20BDE8F087C4F58034C4F30724A146BA
:1006D00046F0C00640200D490870A12048709C20BB
:1006E00088700846C67045F080000871084680F89A
:1006F000059000208871C8710021084600F0B4F907
:1007000000F0FF084046DCE700F0595BB60000202F
:1007100010B500F02FF930B10748007848B9012032
:100720000549087005E004480078002801DD00F064
:1007300051F90148007810BDF4460020F0B5A3B08F
:10074000002400270025002679480078022870D16F
:100750007848007800286DD0802101A8FFF7F0FECE
:100760007548007868B100BF05E07448005D21A9B4
:100770000855601CC4B2082CF7DB002070490870D3
:1007800098E06F48007850B9002405E06D48005D9E
:1007900021A90855601CC4B2082CF7DB8AE0684820
:1007A000007801280AD1002405E06748005D21A9EE
:1007B0000855601CC4B2082CF7DB7BE06048007869
:1007C00002280AD1002405E06048005D21A90855EF
:1007D000601CC4B2082CF7DB6CE059480078032891
:1007E00068D15B48007802280DD15A48007850B98A
:1007F000002405E05848005D21A90855601CC4B2DA
:10080000082CF7DB56E052480078032827D15148DE
:100810000078012823D15148008800F030003028AA
:1008200012D14E48008800F0C000C0280CD100242E
:1008300007E07BE059E04A48005D21A90855601CAB
:10084000C4B2082CF7DB35E0002405E04548005D24
:1008500021A90855601CC4B2082CF7DB2AE03C48EB
:100860000078032819D13B480078B0B93B4800888C
:1008700000F0300030281DD13848008800F0C0005A
:10088000C02817D1002405E03548005D21A908558E
:10089000601CC4B2082CF7DB0CE00120284908706A
:1008A000002405E02848005D21A90855601CC4B259
:1008B000082CF7DB21A9082000F002FB00F0DAFA8F
:1008C00001212948007800F02FFA0746142F05D09F
:1008D000761C032E02DD0020154908704FF4967037
:1008E00003F022FA002013490870012101A803F047
:1008F000A3F9C5B2D5B1002405E001A8005D1B49EC
:100900000855601CC4B2AC42F7DB194805700A48B0
:10091000007830B100200849087041F2883003F0B7
:1009200003FA02F08DFC01200249087023B0F0BDEB
:10093000F4460020B0000020F8000020F000002065
:10094000FD000020C0000020C8000020D0000020D2
:10095000F9000020FB000020E80000200401002036
:10096000D8000020E0000020B30000200047002055
:10097000FE00002010B54FF400610B4801F096F91D
:1009800008B900F013F8162000F03AF9052003F03A
:10099000D7F900F02BF80446152C01D0182C01D102
:1009A000012010BD0020FCE7000C014010B5222002
:1009B00000F026F900F01AF80446204610BD00B5F4
:1009C0000A2000F01DF9072000F056F900F00EF89B
:1009D00000BD0000044800210160416081600820E2
:1009E0000149C87070470000F446002010B51B484C
:1009F000C06820F010001949C8601948006820F04C
:100A00000100174908600846006820F002000860ED
:100A10004FF08830134908600A2003F091F911481B
:100A200008300068C4B20A2003F08AF90B48C06895
:100A300040F010000949C8600948006840F0010012
:100A4000074908600846006840F0020008604FF05F
:100A5000333004490860204610BD000000100140FA
:100A60000C0C0140000801402DE9F04781468A4600
:100A70004FF000084F46802045490870C020454986
:100A80000870454880794449C97940EA01264249BD
:100A9000082000F015FA00F0EDF90D21002000F01B
:100AA00043F90546142D02D00020BDE8F08702204E
:100AB00003F046F93848007800F08000F8B11BE0F8
:100AC00000F0C4F90921002000F02EF90546142D8C
:100AD00010D1384600F080F9044608EB04001FFAF4
:100AE00080F82E480078844200DA07E02744301B63
:100AF00086B201E00020D8E7002EE1D122E01FE01D
:100B000026480078864202DD2448007800E030461E
:100B1000C4B23946204600F0D3F900F0ABF9012108
:100B2000002000F001F90546142D07D108EB040060
:100B30001FFA80F82744301B86B201E00020B4E79A
:100B4000002EDDD1C02013490870114908701248E9
:100B5000007800F0800058B10F49002000F0B0F993
:100B600000F088F90121002000F0DEF8054606E0DB
:100B700000F06CF90921002000F0D6F80546142D8C
:100B800001D0002091E7AAF8008028468DE70000F8
:100B9000BF000020BE000020B6000020B1000020F1
:100BA00010B504460B2000F02BF8252000F064F867
:100BB000204600F061F8022003F0C2F810BD70B5C5
:100BC0000546452000F01CF8284600F055F800F0D6
:100BD00065F90446142C05D1132000F011F82846BD
:100BE00000F04AF8204670BD00B50B2000F008F870
:100BF000172000F041F8D82000F03EF800BD0000BA
:100C000010B504460A2003F09BF81848C06820F08D
:100C100010001649C8601648006840F001001449E9
:100C200008601448006800F47F40124908600846D4
:100C30000068E1B208430F4908600D48006820F0E1
:100C400004000B4908600A2003F07AF80748C068DE
:100C500040F010000549C8600548006840F00400F5
:100C600003490860C82003F06BF810BD0010014074
:100C70000C0C01400C08014010B504460A2003F09A
:100C80005FF81B48C06820F010001949C860194877
:100C9000006820F00100174908601748006800F458
:100CA0007F401549086008460068E1B208431249D0
:100CB00008601048006820F004000E4908600A200F
:100CC00003F03EF80A48C06840F010000849C860C8
:100CD0000848006840F004000649086008460068BB
:100CE00040F001000860C82003F02AF810BD0000A1
:100CF000001001400C0C01400C08014070B5054685
:100D00004620FFF77DFF2846FFF7B6FF00F0C6F844
:100D10000446142C03D1034800F05EF80646204632
:100D200070BD00007446002070B504460D464F208B
:100D3000FFF766FF45EA0411C8B2FFF79DFF00F018
:100D4000ADF870BD10B543791F4C2370002136E01B
:100D5000435C072B30D14B1CC35C052B2CD18B1C67
:100D6000C35C03F080034BB1CB1CC35C022B05D1E9
:100D70008B1CC35C03F00F03144C23708B1CC35CEF
:100D800003F080034BB9CB1CC35C022B05D18B1C39
:100D9000C35C03F00F030E4C23708B1CC35C03F089
:100DA00080034BB1CB1CC35C032B05D18B1CC35CF4
:100DB00003F00F03074C2370425C8B18D9B2837881
:100DC0008B42C5DC10BD0000B2000020B400002042
:100DD000B3000020B500002070B504462820FFF7BE
:100DE0000FFFFFF703FE0646002505E0FFF7FEFDB7
:100DF00004F8010B681CC5B2B542F7D1304670BD8E
:100E000000B50120FFF7FCFEFFF7F0FD00BD10B5B7
:100E100004464920FFF7F4FE2046FFF72DFF00F0BF
:100E20003DF810BD10B504461520FFF7E9FE204639
:100E3000FFF722FF192002F083FFFFF7D7FD5128AB
:100E400001D1012010BD0020FCE7000000B51C20EE
:100E5000FFF7D6FE06480078FFF70EFF044800783B
:100E600080F0400002490870022002F069FF00BDD6
:100E7000BE00002000B51D20FFF7C2FE0648007826
:100E8000FFF7FAFE0448007880F04000024908703D
:100E9000022002F055FF00BDBF00002010B500BFCA
:100EA0004FF40061054800F001FF0028F8D122202E
:100EB000FFF7A6FEFFF79AFD10BD0000000C0140F1
:100EC00030B505460C462B20FFF79AFE2846FFF763
:100ED000D3FE03E014F8010BFFF7CEFE281EA5F1A8
:100EE0000101CDB2F6D130BD10B5024800F064FA70
:100EF00010BD0000CC04002010B5024800F05CFAE0
:100F000010BD00008804002010B507480068C068C4
:100F100040F0100004490968C860402203490248B3
:100F200001F062FE10BD000048040020C60300204E
:100F300030B590F840500124AC40C56B6C6004683B
:100F400063604468102C04D10468A2600468E16006
:100F500003E00468A1600468E26030BD70470000EF
:100F60000A48007880B109480078012804D108486F
:100F700000790849087007E004480078022803D186
:100F8000034800790449087070470000FD00002004
:100F900000470020FA000020F90000200F49C9781E
:100FA0000E4A92784FF4807303FB021188B242F626
:100FB0002431884211D0891C88420ED00849097812
:100FC000022903D10121074A117006E0044909787A
:100FD000032902D10021034A117070470047002005
:100FE000F9000020FB00002072B600BFFEE7000001
:100FF0000021074AD1610749096941F00201054A08
:10100000116111464861096941F040011161704761
:1010100050050020002002400022054BDA61054AFD
:10102000126942F00102034B1A610180704700000F
:10103000500500200020024000201E49C96801F030
:10104000100139B11C49C96941F002011A4AD16144
:1010500040F010001749C96801F0040139B1164980
:10106000C96941F00101144AD16140F004001149FD
:10107000C96901F0010169B10F49C96941F0040171
:101080000D4AD16100BF0B49C96921F00101094A2C
:10109000D16100BF00BF40F20111884206D105496D
:1010A000C96921F00101034AD16101E00149C86029
:1010B00000BF7047002002405005002070B5044674
:1010C00000F00AFE054609E0601C38B124B100F0CA
:1010D00003FE401BA04201D9032070BD1248C06826
:1010E00000F001000028EFD10F48C06800F0200098
:1010F00020B100BF20200C49C86000BF0A48C0686A
:1011000000F0100048B90848C06900F0010020B99B
:101110000548C06800F0040018B1FFF78DFF0120FA
:10112000DBE70020D9E70000002002400146002252
:1011300091F82100022808D00420886300BF002015
:1011400081F8200000BF012070470868006820F087
:101150000E000B6818600868006820F001000B683A
:10116000186091F8403001209840CB6B5860012006
:1011700081F8210000BF002081F8200000BF104648
:10118000E2E7000070B50446002594F8210002282B
:1011900003D00420A0630125C1E02068006820F08E
:1011A0000E00216808602068006820F001002168B6
:1011B00008605C492068884252D95A4978392068C9
:1011C000884201D1012047E05649643920688842AD
:1011D00001D1102040E0534950392068884201D1A4
:1011E000801539E04F493C392068884201D180148C
:1011F00032E04C4928392068884202D14FF48030CF
:101200002AE0484914392068884202D14FF48010FE
:1012100022E044492068884201D140041CE0424950
:101220002068884201D1012016E03F49143120682E
:10123000884201D110200FE03B49283120688842C4
:1012400001D1801508E038493C312068884201D13D
:10125000801401E04FF480303349091F086051E0E9
:10126000304978392068884201D1012047E02D4972
:1012700064392068884201D1102040E02949503962
:101280002068884201D1801539E026493C39206820
:10129000884201D1801432E02249283920688842EE
:1012A00002D14FF480302AE01E4914392068884268
:1012B00002D14FF4801022E01A492068884201D1FF
:1012C00040041CE018492068884201D1012016E042
:1012D000154914312068884201D110200FE01249CD
:1012E00028312068884201D1801508E00E493C3140
:1012F0002068884201D1801401E04FF48030094910
:1013000080394860012084F8210000BF002084F863
:10131000200000BF606B10B12046616B88472846F3
:1013200070BD00008000024008040240014609B977
:10133000012070470868006820F001000A6810600A
:1013400000200A6810600A6850600A6890600A68A5
:10135000D060174A086890420BD2164A0868801A73
:101360001422B0FBF2F08000086412480838C86309
:101370000AE00F4A0868801A1422B0FBF2F08000DD
:1013800008640B480838C86391F840200120904059
:10139000CA6B506000208862C86208634863886333
:1013A00081F8210000BF81F8200000BF00BFC0E726
:1013B000080402400800024070B50446E06B05686E
:1013C0002068066894F840100420884028400028CF
:1013D00075D006F004000028FAD02068006800F0FC
:1013E000200028B92068006820F004002168086007
:1013F000D5492068884254D9D34978392068884231
:1014000001D1042049E0D04964392068884201D1E3
:10141000402042E0CC4950392068884201D1001573
:101420003BE0C9493C392068884202D14FF48040F2
:1014300033E0C54928392068884202D14FF4802022
:101440002BE0C14914392068884202D14FF4800052
:1014500023E0BD492068884201D1C0041DE0BB499A
:101460002068884201D1042017E0B849143120686F
:10147000884201D1402010E0B449283120688842D8
:1014800001D1001509E0B1493C312068884202D100
:101490004FF4804001E04FF48020AC49091F086000
:1014A00054E0A94978392068884201D104204AE0F3
:1014B000A54964392068884202D1402043E04CE0CD
:1014C000A14950392068884201D100153BE09E496E
:1014D0003C392068884202D14FF4804033E09A4979
:1014E00028392068884202D14FF480202BE09649A9
:1014F00014392068884202D14FF4800023E09249D9
:101500002068884201D1C0041DE0904920688842CB
:1015100001D1042017E08D4914312068884201D19F
:10152000402010E0894928312068884201D1001507
:1015300009E086493C312068884202D14FF480405E
:1015400001E04FF48020804980394860E06A00283B
:1015500002D02046E16A8847F4E094F84010022067
:1015600088402840002871D006F002000028FAD0F8
:101570002068006800F0200040B92068006820F072
:101580000A0021680860012084F821006E49206863
:10159000884254D96C4978392068884201D10220A8
:1015A00049E0694964392068884201D1202042E03D
:1015B000654950392068884201D140153BE06249B5
:1015C0003C392068884202D14FF4005033E05E4934
:1015D00028392068884202D14FF400302BE05A4964
:1015E00014392068884202D14FF4001023E0564994
:1015F0002068884201D180041DE054492068884257
:1016000001D1022017E0514914312068884201D1EC
:10161000202010E04D4928312068884201D1401532
:1016200009E04A493C312068884202D14FF4005019
:1016300001E04FF400304549091F086054E0424979
:1016400078392068884202D102204AE057E03E49BA
:1016500064392068884201D1202042E03A4950395B
:101660002068884201D140153BE037493C39206869
:10167000884202D14FF4005033E0334928392068C2
:10168000884202D14FF400302BE02F4914392068F2
:10169000884202D14FF4001023E02B492068884291
:1016A00001D180041DE029492068884201D102202F
:1016B00017E0264914312068884201D1202010E02B
:1016C000224928312068884201D1401509E01F498C
:1016D0003C312068884202D14FF4005001E04FF4C1
:1016E000003019498039486000BF002084F820008C
:1016F00000BFA06A30B32046A16A884722E094F870
:101700004010082088402840E0B106F00800C8B129
:101710002068006820F00E002168086094F84010EE
:1017200001208840E16B48600120A06384F821001B
:1017300000BF002084F8200000BF206B10B12046BD
:10174000216B884770BD0000800002400804024001
:101750000146002209B9012070471E4B08689842D3
:101760000BD21D4B0868C01A1423B0FBF3F08000A5
:10177000086419480838C8630AE0164B0868C01A9C
:101780001423B0FBF3F08000086412480838C863E3
:10179000022081F821000868026843F6F070824355
:1017A000D1E901031843CB6818430B6918434B690F
:1017B00018438B691843CB691843024308680260D9
:1017C00000208863012081F82100002081F820009A
:1017D00000BFC1E708040240080002402DE9F041C3
:1017E00004460D4616461F464FF0000800BF94F809
:1017F0002000012802D10220BDE8F081012084F8F8
:10180000200000BF94F8210001282CD1022084F888
:1018100021000020A0632068006820F001002168FA
:1018200008603B46324629462046FFF781FBE06AC6
:1018300030B12068006840F00E00216808600BE0BD
:101840002068006820F004002168086020680068B3
:1018500040F00A00216808602068006840F001003C
:101860002168086006E000BF002084F8200000BF67
:101870004FF002084046BFE70348006940F080008F
:101880000149086100207047002002402DE9FE4F09
:1018900005468B46174698460126002400200290F4
:1018A00000BF2448007E012802D10220BDE8FE8F3F
:1018B00001202049087600BF4CF25030FFF7FEFBB4
:1018C000064686BB012D02D10120029006E0022DC2
:1018D00002D10220029001E00420029000241EE0C8
:1018E0002201B946C24648465146FEF7E0FC80B2A6
:1018F0000190022000FB04B000900199FFF78CFBDF
:101900004CF25030FFF7DAFB06460B48006920F036
:1019100001000949086106B104E0601CC4B20298E4
:101920008442DDDB00BF00BF00200249087600BF13
:101930003046BBE750050020002002400020084947
:10194000096901F0800151B10649054A5160064913
:1019500051601146096901F0800101B10120704711
:101960000020024023016745AB89EFCD2DE9F84700
:10197000024600239C467BE14FF0010808FA03F47D
:10198000D1F8008008EA0400A0427DD1DFF8F4A27B
:10199000D1F80480A8EB0A09D0453AD014DCB8F19C
:1019A000030F50D009DCB8F1000F31D0B8F1010FAE
:1019B0001CD0B8F1020F49D120E0B8F1110F18D0B6
:1019C000B8F1120F42D11EE0B9F5881F25D006DC10
:1019D000B9F5803F20D0B9F5801F37D11AE0B9F5AD
:1019E000001F18D0B9F5041F30D117E0D1F80CC092
:1019F0002DE0D1F80C8008F1040C28E0D1F80C801F
:101A000008F1080C23E0D1F80C8008F10C0C1EE062
:101A100000BF00BF00BF00BF00BF00BFD1F80880FB
:101A2000B8F1000F02D14FF0040C0BE0D1F80880A0
:101A3000B8F1010F03D14FF0080C146102E04FF030
:101A4000080C546103E04FF0000C00E000BF00BF41
:101A5000FF2801D8904601E002F104084646FF281D
:101A600002D84FEA830803E0A3F108084FEA880888
:101A70004746D6F800804FF00F0909FA07F928EA1F
:101A800009080CFA07F900E07AE048EA0908C6F804
:101A90000080D1F8048008F08058B8F1805F6FD1E1
:101AA00000BFDFF8E481D8F8188048F00108DFF8BB
:101AB000D891C9F81880C846D8F8188008F00108ED
:101AC000CDF8008000BF00BF4FEAB9384FEA930954
:101AD00058F829504FEA83784FEA18794FF00F08E9
:101AE00008FA09F825EA0805DFF8A081424502D185
:101AF0004FF0000824E0DFF89881424502D14FF012
:101B000001081DE0DFF88C81424502D14FF0020848
:101B100016E0DFF88481424502D14FF003080FE060
:101B2000DFF87881424502D14FF0040808E0DFF881
:101B30007081424502D14FF0050801E04FF00608E0
:101B40004FEA83794FEA197908FA09F848EA050556
:101B5000DFF850814FEA930948F82950D1F8048002
:101B600008F48038B8F5803F0BD1DFF83C81D8F815
:101B7000008048EA0008DFF83091C9F800800AE0E8
:101B800075E0DFF82481D8F8008028EA0008DFF843
:101B90001891C9F80080D1F8048008F40038B8F52D
:101BA000003F0ED1DFF8008108F10408D8F800806A
:101BB00048EA0008DFF8F09009F10409C9F800804C
:101BC0000DE0DFF8E48008F10408D8F8008028EA86
:101BD0000008DFF8D49009F10409C9F80080D1F8B1
:101BE000048008F48018B8F5801F0ED1DFF8B880A3
:101BF00008F10808D8F8008048EA0008DFF8A89043
:101C000009F10809C9F800800DE0DFF89C8008F1AF
:101C10000808D8F8008028EA0008DFF88C9009F15D
:101C20000809C9F80080D1F8048008F40018B8F554
:101C3000001F0ED1DFF8708008F10C08D8F8008082
:101C400048EA0008DFF8609009F10C09C9F8008043
:101C50000DE0DFF8548008F10C08D8F8008028EA7D
:101C60000008DFF8449009F10C09C9F800805B1CFA
:101C7000D1F8008028FA03F8B8F1000F7FF47CAEA9
:101C8000BDE8F88700001110001002400008014074
:101C9000000C0140001001400014014000180140F8
:101CA000001C014008000140000401400246936806
:101CB0000B400BB1012000E000207047C2680A40D1
:101CC0000AB1416100E0016170470AB1016101E0C0
:101CD0000B04036170470000014800687047000072
:101CE0003800002003480068034909780844014986
:101CF00008607047380000204000002010B50848F8
:101D0000006840F0100006490860032000F0CCF89D
:101D10000F2000F007F800F049F8002010BD000087
:101D20000020024070B588B004460025002600223D
:101D30002146372000F07AF8372000F067F800BF1E
:101D40001648C06940F020001449C8610846C069BF
:101D500000F02000019000BF00BF02A903A800F01E
:101D60007DF900F0A3F905460D48B5FBF0F0461EDD
:101D70000C480D49086040F2E7310B48C1604660ED
:101D800000210161816000F059FC20B9064800F093
:101D900091FC08B070BD0120FBE70000001002407C
:101DA00040420F00001400401005002008B500BF9D
:101DB0001448806940F00100124988610846806932
:101DC00000F00100009000BF00BF00BF0846C069DE
:101DD00040F08050C8610846C06900F08050009013
:101DE00000BF00BF00220F21901E00F01FF800BFAF
:101DF0000549486820F0E06040F00070486000BF8E
:101E000008BD0000001002400000014001460846E5
:101E1000002809DB00F01F0301229A4043099B00C0
:101E200003F1E023C3F8002100BF70472DE9F05F04
:101E300080460D461646002701F036FF0746394614
:101E40002A46334601F00700C0F1070ABAF1040F31
:101E500002D94FF0040A01E0C0F1070AD14600F1AF
:101E6000040ABAF1070F02D24FF0000A01E0A0F114
:101E7000030AD4464FF0010A0AFA09FAAAF1010A44
:101E80000AEA020A0AFA0CFA4FF0010B0BFA0CFBF1
:101E9000ABF1010B0BEA030B4AEA0B042146404667
:101EA00001F00AFFBDE8F09F00BF00F00702064BFB
:101EB00019684FF6FF031940044B0B4343EA022114
:101EC000014B196000BF70470CED00E00000FA05FF
:101ED00070B504460D460CB9012070BD5A48006823
:101EE00000F00700A8420ED25748006820F0070013
:101EF0002843554908600846006800F00700A842DA
:101F000001D00120E9E7207800F0020002281DD16D
:101F1000207800F00400042805D14C48406840F4C3
:101F2000E0604A494860207800F00800082805D1A0
:101F30004648406840F4605044494860434840681F
:101F400020F0F000A168084340494860207800F084
:101F5000010078B36068012806D13C48006800F4AD
:101F6000003090B90120B8E76068022806D13748F0
:101F7000006800F0007040B90120AEE73348006807
:101F800000F0020008B90120A7E73048406820F0BF
:101F90000300616808432D494860FFF79DFE06462F
:101FA00009E0FFF799FE801B41F28831884202D98F
:101FB000032092E707E02548406800F00C006168C4
:101FC000B0EB810FEDD12048006800F00700A84277
:101FD0000ED91D48006820F0070028431A49086000
:101FE0000846006800F00700A84201D0012074E70D
:101FF000207800F00400042807D11448406820F439
:10200000E060E168084311494860207800F008006A
:10201000082808D10D48406820F46050216940EA42
:10202000C1000A49486000F061F808494968C1F3F5
:102030000311074A515CC840064908600648006819
:10204000FFF770FE002048E7002002400010024029
:10205000B0560008440000203C0000200F2202601F
:102060000D4A526802F0030242600B4A526802F0C5
:10207000F0028260084A526802F4E062C260064AD6
:10208000526802F46052D2080261044A126802F0F7
:1020900007020A6070470000001002400020024062
:1020A00001480068704700004400002000B5FFF7B9
:1020B000F7FF04494968C1F30221034A515CC84053
:1020C00000BD000000100240C056000800B5FFF738
:1020D000E7FF04494968C1F3C221034A515CC84083
:1020E00000BD000000100240C0560008F0B585B0E9
:1020F0000FF26C0C9CE8E01001A8A0E8E0101CA511
:102100002D68009500210022002300240020194D95
:10211000696801F00C05F5B1042D02D0082D19D124
:1021200001E0154819E001ADC1F38346AC5D01F44F
:10213000803555B10F4D6D68C5F340451DF805203C
:102140000D4D6543B5FBF2F302E00C4D04FB05F3C6
:10215000184602E000BF084800BF00BF05B0F0BD50
:1021600002030405060708090A0B0C0D0E0F1010D8
:10217000010200000010024000127A0000093D0038
:10218000F8B504460CB90120F8BD207800F0010034
:10219000002878D0F848406800F00C0004280CD0E3
:1021A000F548406800F00C00082811D1F24840685A
:1021B00000F48030B0F5803F0AD1EF48006800F4A9
:1021C000003000285FD0606800285CD10120DBE788
:1021D00000BF6068B0F5803F06D1E748006840F472
:1021E0008030E549086028E0606858B9E248006836
:1021F00020F48030E04908600846006820F4802020
:1022000008601AE06068B0F5A02F0BD1DA480068CA
:1022100040F48020D84908600846006840F48030C7
:1022200008600AE0D448006820F48030D249086091
:102230000846006820F48020086000BF606888B10C
:10224000FFF74AFD054606E0FFF746FD401B642800
:1022500001D9032098E7C848006800F4003000283E
:10226000F2D010E0FFF738FD054606E0FFF734FD39
:10227000401B642801D9032086E7BF48006800F4AA
:1022800000300028F2D1207800F00200022857D157
:10229000B948406800F00C0050B1B748406800F001
:1022A0000C00082818D1B448406800F4803098B970
:1022B000B148006800F0020020B12069012801D077
:1022C000012061E7AC48006820F0F800616940EA4D
:1022D000C100A949086033E02069E8B10120A7499D
:1022E0000860FFF7F9FC054606E0FFF7F5FC401B28
:1022F000022801D9032047E79F48006800F0020048
:102300000028F2D09C48006820F0F800616940EA9B
:10231000C1009949086013E0002098490860FFF760
:10232000DBFC054606E0FFF7D7FC401B022801D97D
:10233000032029E79048006800F002000028F2D14D
:10234000207800F0080008282DD1A069B8B101203C
:102350008B490860FFF7C0FC054606E0FFF7BCFCB0
:10236000401B022801D903200EE78348406A00F091
:1023700002000028F2D0012000F0B4FF13E000209A
:102380007F490860FFF7A8FC054606E0FFF7A4FCBC
:10239000401B022801D90320F6E67748406A00F086
:1023A00002000028F2D1207800F00400042873D144
:1023B00000277148C06900F0805070B900BF6E48B6
:1023C000C06940F080506C49C8610846C06900F09F
:1023D0008050009000BF00BF01276A48006800F4E9
:1023E0008070B0B96748006840F480706549086043
:1023F000FFF772FC054606E0FFF76EFC401B642801
:1024000001D90320C0E65F48006800F4807000280E
:10241000F2D000BFE068012806D15748006A40F0BA
:1024200001005549086227E0E06858B95248006A3F
:1024300020F00100504908620846006A20F00400BC
:10244000086219E0E06805280BD14B48006A40F0AB
:102450000400494908620846006A40F00100086229
:102460000AE04548006A20F0010043490862084636
:10247000006A20F00400086200BFE068A0B1FFF726
:102480002BFC054609E0FFF727FC401B41F2883191
:10249000884202D9032077E622E03748006A00F03C
:1024A00002000028EFD012E0FFF716FC054608E016
:1024B000FFF712FC401B41F28831884201D903200A
:1024C00062E62D48006A00F002000028F0D1012FDA
:1024D00005D12948C06920F080502749C86100BF54
:1024E000E069C8B32448406800F00C00082860D0B8
:1024F000E069022848D1002020490866FFF7ECFB7C
:10250000054606E0FFF7E8FB401B022801D903203F
:102510003AE61948006800F000700028F2D1206AFD
:10252000B0F5803F07D11448406820F40030A1681E
:10253000084311494860D4E9080108430E49496835
:1025400021F4741108430C49486001200B490866C6
:10255000FFF7C2FB054607E03DE0FFF7BDFB401B70
:10256000022801D903200FE60348006800F000703C
:102570000028F2D02FE0000000100240000042428C
:102580008004424200700040002014490866FFF7B2
:10259000A3FB054606E0FFF79FFB401B022801D97D
:1025A0000320F1E50E48006800F000700028F2D129
:1025B00011E0E069012800D1E6E50948466806F423
:1025C0008031206A814204D106F47011606A814230
:1025D00001D00120D8E50020D6E5000000004242ED
:1025E000001002407047704710B5024600BF92F8D5
:1025F0003C00012801D1022010BD012082F83C00DE
:1026000000BF022082F83D001068436810688468AB
:1026100023F070030868034324F0800448680443EF
:102620001068436010688460012082F83D0000BF9C
:10263000002082F83C0000BF00BFDDE710B5044673
:102640000CB9012010BD94F83D0028B9002084F891
:102650003C00204600F00CF8022084F83D00211DCB
:10266000206800F085FF012084F83D000020E9E7A4
:1026700038B504460D492068884215D100BF0C4882
:10268000C06940F010000A49C8610846C06900F0FE
:102690001000009000BF00BF002205213620FFF788
:1026A000C5FB3620FFF7B2FB38BD0000001000402C
:1026B0000010024001460868C06840F001000B6845
:1026C000D8600868806800F00702062A05D008680C
:1026D000006840F001000B681860002070477047E8
:1026E00010B5044620680069C0F34000D8B12068E6
:1026F000C068C0F34000B0B16FF00200216808610B
:10270000012020772068806900F0030018B120467E
:10271000FFF7E5FF05E0204600F0ADF8204600F0A9
:10272000ABF80020207720680069C0F38000D8B1A2
:102730002068C068C0F38000B0B16FF00400216869
:102740000861022020772068806900F4407018B189
:102750002046FFF7C4FF05E0204600F08CF8204635
:1027600000F08AF80020207720680069C0F3C000DC
:10277000D8B12068C068C0F3C000B0B16FF00800E5
:1027800021680861042020772068C06900F00300F8
:1027900018B12046FFF7A3FF05E0204600F06BF8D4
:1027A000204600F069F80020207720680069C0F317
:1027B0000010D8B12068C068C0F30010B0B16FF04D
:1027C000100021680861082020772068C06900F4A3
:1027D000407018B12046FFF782FF05E0204600F068
:1027E0004AF8204600F048F8002020772068006969
:1027F00000F0010058B12068C06800F0010030B15D
:102800006FF0010021680861204600F037F8206869
:102810000069C0F3C01058B12068C068C0F3C01090
:1028200030B16FF08000216808612046FFF7DAFEC2
:1028300020680069C0F3801058B12068C068C0F3F8
:10284000801030B16FF0400021680861204600F030
:102850002DF820680069C0F3401058B12068C068A6
:10286000C0F3401030B16FF02000216808612046AD
:10287000FFF7B9FE10BD70477047000010B5044661
:1028800007492068884201D1FFF72CFA05492068E2
:10289000884204D104480068401C0349086010BD08
:1028A000001400400010004000000020704770B588
:1028B0000446002520684069C0F3C01594F839002B
:1028C00021280ED16DB12068406920F08000216878
:1028D0004861206B10B1206BFEF728FC204600F009
:1028E00011FF20684069C0F3801594F83A0022284F
:1028F0000ED16DB12068406920F040002168486128
:10290000606B10B1606BFEF711FC204600F0DAFE40
:10291000002070BD704700002DE9F0470446206894
:1029200005682068C668206847694FF00008C146FE
:1029300005F00F08B8F1000F0AD105F0200038B1FA
:1029400006F0200020B1204600F044FFBDE8F087EB
:10295000B8F1000F6DD007F0010018B906F49070BF
:10296000002866D005F0010030B106F4807018B17F
:10297000E06B40F00100E06305F0040030B107F0C7
:10298000010018B1E06B40F00200E06305F00200C6
:1029900030B107F0010018B1E06B40F00400E063D3
:1029A00005F0080030B107F0010018B1E06B40F00D
:1029B0000800E063E06B68B305F0200028B106F082
:1029C000200010B1204600F005FF20684069C0F3E8
:1029D0008019E06B00F0080010B9B9F1000F22D0A7
:1029E000204600F06FFE2068406900F04000B0B162
:1029F0002068406920F0400021684861606B50B158
:102A00001748616B4863606BFEF7BCFB10B1606BED
:102A1000416B88470CE02046FFF77CFF08E020462A
:102A2000FFF778FF04E02046FFF774FF0020E06323
:102A30008CE705F0800030B106F0800018B1204628
:102A400000F0ECFF82E705F0400030B106F04000F6
:102A500018B1204600F046FE78E700BF76E7000098
:102A60000D36000810B504460CB9012010BDA06950
:102A700000B100E000BF94F8390028B9002084F8C4
:102A80003800204600F028F8242084F83900206817
:102A9000C06820F400502168C860204600F0EEFEB7
:102AA0002068006920F4904021680861206840692E
:102AB00020F02A00216848612068C06840F4005076
:102AC0002168C8600020E063202084F8390084F881
:102AD0003A000020CAE7000010B586B00446002086
:102AE00002900390049005903949206888426DD186
:102AF00000BF3848806940F4804036498861084604
:102B0000806900F48040019000BF00BF00BF08460C
:102B1000806940F0040088610846806900F0040084
:102B2000019000BF00BF48150290022003900320CF
:102B3000059002A92848FEF719FF4FF48060029023
:102B400000200390049002A92348FEF70FFF2348BA
:102B500023490860002048600021214881608021CD
:102B6000C16000210161416181614FF40051C16187
:102B7000FEF7EEFD08B1FEF737FA00BF18486063B4
:102B8000446200BF15481438164908601020486098
:102B90000021144881608021C160002101614161F0
:102BA00081614FF40051C161FEF7D2FD08B1FEF71B
:102BB0001BFA00BF0B482063446200BF00220521BE
:102BC0002520FFF733F92520FFF720F906B010BDC7
:102BD0000038014000100240000801405800024047
:102BE00088040020CC04002077B581B00446154647
:102BF00094F83A00202850D1029800B115B901206C
:102C000004B070BD00BF94F83800012801D1022043
:102C1000F6E7012084F8380000BF0298A062A5857D
:102C20000020E063222084F83A001D48616B88622E
:102C30001C48616BC8621C48616B08630020616BB3
:102C4000486302AE32682368191D2B46606BFEF79D
:102C5000C5FD00BF0020009020680068009020683B
:102C60004068009000BF00BF00BF002084F838001B
:102C700000BF2068C06840F480702168C860206888
:102C8000406940F00100216848612068406940F0D7
:102C90004000216848610020B2E70220B0E7000050
:102CA00071360008B73600082136000870477047B3
:102CB0002DE9F84304460D4616461F464FF000091D
:102CC00094F8390020285CD105B116B90120BDE87F
:102CD000F88300BF94F83800012801D10220F6E7FC
:102CE000012084F8380000BF0020E063212084F830
:102CF0003900FEF7F1FF8146A684E6842BE0E08CE4
:102D0000401EE084A068B0F5805F16D14B460022DB
:102D100080212046009700F0B5FE08B10320D6E7D9
:102D2000A846B8F80000C0F3080021684860206990
:102D300008B9AD1C0FE06D1C0DE04B460022802150
:102D40002046009700F09EFE08B10320BFE715F86B
:102D5000010B21684860E08C0028D0D14B4600224E
:102D600040212046009700F08DFE08B10320AEE719
:102D7000202084F8390000BF002084F8380000BF0C
:102D8000A5E70220A3E7704700BFFEE72B480078C5
:102D9000032808D12A48008800F0FC002849088050
:102DA0002849087007E02648008840F003002449BD
:102DB00008802449087021484078032808D1204819
:102DC000008800F0F3001E4908801E49087007E0E3
:102DD0001B48008840F00C00194908801949087008
:102DE00016488078032808D11548008800F0CF00E5
:102DF000134908801349087007E01148008840F023
:102E000030000F4908800F4908700C48C07803282B
:102E100008D10B48008800F03F00094908800949A3
:102E2000087007E00648008840F0C00004490880A8
:102E30000449087003480078704700000001002032
:102E4000040100201001002070B5304805884FF4BF
:102E500080612F48FEF72AFF65F35F002B49088049
:102E6000084645884FF480512948FEF71FFF65F357
:102E70005F00264948800846858804212448FEF7DB
:102E800015FF65F35F00214988800846C588022147
:102E90001F48FEF70BFF65F35F001C49C880002444
:102EA00030E01A4830F814004FF20F0108400F28A4
:102EB00003D101201749085522E0144830F81400C6
:102EC0004FF20F010840B0F5704F03D102201149B5
:102ED000085515E00D4830F814004FF20F01084076
:102EE00018B903200B4908550AE0084830F81400C7
:102EF0004FF20F010840884202D1002005490855D1
:102F0000601CC4B2042CCCDB70BD000006010020A4
:102F1000001001400001002070B50B4C0B48FEF77B
:102F200005FA0B48FEF702FA00204FF0E021086195
:102F30004861886172B665682E46206880F308880B
:102F400000BFB04770BD000000F0FF1F88040020E4
:102F5000CC04002008B500BF0E48406940F00100D5
:102F60000C4948610846406900F00100009000BF2C
:102F700000BF002205210E20FEF758FF0E20FEF7AD
:102F800045FF002205210F20FEF750FF0F20FEF71E
:102F90003DFF08BD0010024000B59DB01C2218493D
:102FA00016A8FDF771FA002116A800F00EFF1549CA
:102FB00008601C2212491C310FA8FDF765FA002198
:102FC0000FA800F002FF104908601C220C4938319C
:102FD00008A8FDF759FA002108A800F0F6FE0B49F1
:102FE00008601C220649543101A8FDF74DFA002162
:102FF00001A800F0EAFE064908601DB000BD00000F
:103000004056000820000020240000202C00002052
:103010003000002000B585B00020019002900390A0
:10302000049000BF6048806940F010005E498861EC
:103030000846806900F01000009000BF00BF00BF8C
:103040000846806940F0040088610846806900F005
:103050000400009000BF00BF00BF0846806940F038
:10306000080088610846806900F00800009000BFF1
:1030700000BF00BF0846806940F020008861084614
:10308000806900F02000009000BF00BF00221121E5
:103090004648FEF71AFE012248F2FF014448FEF7B7
:1030A00014FE012240F207414248FEF70EFE0022C4
:1030B0004FF400613D48FEF708FE002204213E481F
:1030C000FEF703FE0022F8213A48FEF7FEFD01203C
:1030D00001900290002003900220049001A933483F
:1030E000FEF744FC41F2064001900020029003905C
:1030F00001A92E48FEF73AFCFF2001900120029022
:10310000002003900320049001A92948FEF72EFC1B
:103110004FF40160019001200290002003900320F1
:10312000049001A92148FEF721FC40F2674001907C
:1031300001200290002003900320049001A91D4863
:10314000FEF714FC4FF40060019000200290039001
:1031500001A91848FEF70AFC4FF400400190012035
:103160000290002003900220049001A91048FEF76D
:10317000FDFB04200190012002900020039002201A
:10318000049001A90C48FEF7F1FB98200190012062
:103190000290002003900220049001A90548FEF748
:1031A000E5FB05B000BD000000100240001001402A
:1031B00000080140000C0140001401401CB5002033
:1031C000009001900D480E4908604F204860002192
:1031D0000B4881600921C16080218161FFF72EFACF
:1031E00008B1FDF701FF00200090019069460448F6
:1031F000FFF7FAF908B1FDF7F7FE1CBD001000401B
:103200008403002010B50B480B4908604FF4E130EF
:103210004860002108488160C16001610C21416162
:1032200000218161C161FFF71DFC08B1FDF7DCFEE3
:1032300010BD0000003801404804002000BFFEE738
:1032400070B52348007801282AD122480078801ED2
:103250001F49095C1F480078401E1D4A105C4FF44E
:10326000807202FB001085B21A480078801EC1B23D
:10327000174800F037FDA8420ED1154840780328C2
:1032800002D0062806D102E0FDF76AFE03E0FDF752
:1032900085FE00E000BF00BF01200F49087002E07A
:1032A00000200D490870002404E00020084908555A
:1032B000601CC4B2142CF8DB08480078401CC0B273
:1032C00006490870032801DD0120087070BD000068
:1032D00000470020FE000020FC000020FD00002030
:1032E00000BFFEE708B508490968C9084FF47A72BB
:1032F000B1FBF2F14143009100BF00BF00994A1EAB
:1033000000920029F9D108BD4400002030B50346E1
:103310000C461546002206E0184600F007F844F86F
:1033200022001B1D521CAA42F6D330BD014608687C
:10333000704700002DE9F05F80468A461746B8F1D5
:10334000006F02D33948804504D339A0FCF7C2FF8F
:10335000BDE8F09FFEF7F2FAA8F1006B4FEADB251B
:10336000CBF38809C9F50074A74200D83C4657E062
:103370004FF0006101EBC5208A143349FFF7C6FF07
:10338000002608E009EB06002F4951F82000401CF8
:1033900000B102E0761CA642F4D300BFA64224D2BC
:1033A0004FF0006101EBC520FDF722FE4CF25030DA
:1033B000FDF784FE2548006920F0020023490861DA
:1033C000002607E05AF8260006EB09011E4A42F8DB
:1033D0002100761CA642F5D34FF0006101EBC52019
:1033E0008A14194900F034F808E04CF25030FDF727
:1033F00065FE22465146404600F02AF8A74200D119
:103400000FE06D1C4FF000090AEB840A08EB8408FA
:103410003F1BB7F5007F02D94FF4007400E03C4633
:10342000A6E700BFFEF728FA00BF91E700000408F6
:10343000464C4153482041444452204552524F5239
:10344000EFBC815C720A0000742E00200020024054
:103450002DE9F04104460E461746002509E056F8CE
:1034600025C06246002321460220FEF70FFA241DE4
:103470006D1CBD42F3D3BDE8F081000010B55020B3
:1034800080F31188BFF34F8FBFF36F8F01F024FFDC
:1034900018B104494FF080500860002080F3118873
:1034A00010BD000004ED00E000B58FB0282105A894
:1034B000FDF746F814216846FDF742F80220059012
:1034C0000120099010200A9000200C9005A8FEF71A
:1034D00057FE08B1FDF788FD0F20009000200190F5
:1034E00002900390049000216846FEF7F1FC08B1B9
:1034F000FDF77AFD0FB000BD1148006840F00100F3
:103500000F490860084640680E4908400C49486069
:10351000084600680C4908400949086008460068E8
:1035200020F4802008600846406820F4FE004860CF
:103530004FF41F008860C80304490860704700000A
:10354000001002400000FFF8FFFFF6FE08ED00E06B
:1035500010B50248FFF7C4F810BD00008403002036
:1035600010B50248FFF7BCF810BD000010050020A0
:1035700010B50268204B98420ED0204B98420BD0D9
:10358000B0F1804F08D01E4B984205D01D4B984299
:1035900002D01D4B984203D122F070024B681A43AF
:1035A000154B98420ED0154B98420BD0B0F1804F7E
:1035B00008D0134B984205D0124B984202D0124BC0
:1035C000984203D122F44072CB681A4322F0800360
:1035D0004C6943EA040202608B68C3620B68836231
:1035E000054B984202D0054B984201D10B69036309
:1035F0000123436110BD0000002C01400034014054
:103600000004004000080040000C004070B5054672
:103610006C6A0020E085E0842046FFF77BF970BDEE
:1036200070B506460025746A20684069C0F3C0156D
:1036300094F83900212805D125B10020E0842046E6
:1036400000F060F820684069C0F3801594F83A00F3
:10365000222805D125B10020E085204600F032F86F
:10366000E06B40F01000E0632046FFF753F970BDB7
:1036700070B505466C6A2868006800F02000B0B993
:103680000020E0852068C06820F480702168C86050
:103690002068406920F00100216848612068406985
:1036A00020F0400021684861202084F83A0020463C
:1036B000FFF7FCFA70BD70B50446656A2846FFF74F
:1036C000F6FA70BD0168C96821F490710268D16092
:1036D0000168496921F0010102685161202180F8E7
:1036E0003A10704710B504462068C06820F04000CA
:1036F0002168C860202084F839002046FFF743FB8A
:10370000002010BD0168C96821F0C0010268D160C5
:10371000202180F8391070471CB504460020019024
:10372000264800680068C0F30010002844D000BF9D
:103730000020009021480068006800901F48006841
:103740004068009000BF00BF01201D4948701B4821
:10375000FFF7ADF81B4800684068C0F14000184909
:10376000087008460078202817DC002301AA891C6D
:103770001548006801F0FAFB002301AA104913481C
:10378000006801F0F3FB019838B14FF08050104908
:103790000860BFF34F8FBFF36F8F00200849087098
:1037A000487040210648801CFCF7A8FE40220449CE
:1037B000891C0248FFF718FA1CBD000048040020CD
:1037C000C40300208804002004000020080000201A
:1037D00004ED00E070B5044694F83A0022284AD17E
:1037E000A068B0F5805F13D1A56A206940B9206850
:1037F0004068C0F308002880A06A801CA06219E01D
:1038000020684068C0B22880A06A401CA06211E015
:10381000206938B920684068C1B2A26A501CA06211
:10382000117007E02068406800F07F01A26A501C18
:10383000A0621170E08D401E80B2E085C8B920689A
:10384000C06820F020002168C8602068C06820F4AB
:1038500080702168C8602068406920F001002168FC
:103860004861202084F83A002046FFF71FFA002024
:1038700070BD0020FCE70220FAE7000070B50446A6
:103880002168096921F44051E268114322681161FD
:103890002269A1681143626941EA02052168C96889
:1038A00041F20C62914329432268D1602168496941
:1038B00021F44071A269114322685161564A21687E
:1038C000914254D1FEF702FC00EBC00101EB001164
:1038D00062689200B1FBF2F100EBC00202EB001251
:1038E00063689B00B2FBF3F26423B2FBF3F202EBDA
:1038F000C20303EB0212A1EB8201322202EB01119F
:103900006422B1FBF2F101F0F00100EBC00202EB26
:10391000001263689B00B2FBF3F26423B2FBF3F284
:1039200001EB021200EBC00101EB001163689B0088
:10393000B1FBF3F100EBC00303EB00136668B600C4
:10394000B3FBF6F36426B3FBF6F303EBC30606EB17
:103950000313A1EB8301322303EB01116423B1FBB9
:10396000F3F101F00F0111442268916053E0FEF77A
:103970009DFB00EBC00101EB001162689200B1FBFE
:10398000F2F100EBC00202EB001263689B00B2FB95
:10399000F3F26423B2FBF3F202EBC20303EB021275
:1039A000A1EB8201322202EB01116422B1FBF2F1A0
:1039B00001F0F00100EBC00202EB001263689B0013
:1039C000B2FBF3F26423B2FBF3F201EB021200EB61
:1039D000C00101EB001163689B00B1FBF3F100EB48
:1039E000C00303EB00136668B600B3FBF6F364266E
:1039F000B3FBF6F303EBC30606EB0313A1EB830162
:103A0000322303EB01116423B1FBF3F101F00F0149
:103A100011442268916070BD00380140014691F860
:103A2000390021282CD18868B0F5805F0FD10A6A4F
:103A30001088C0F308000B685860086918B9086A54
:103A4000801C086209E0086A401C086205E00B6AF5
:103A5000581C086218780B685860C88C401E80B2E9
:103A6000C88458B90868C06820F080000B68D86026
:103A70000868C06840F040000B68D86000207047BC
:103A80000220FCE72DE9F04104460D461746984612
:103A9000069E21E0701CF8B12EB1FEF71DF9A0EBD7
:103AA0000800B04218D92068C06820F4D07021689E
:103AB000C8602068406920F001002168486120202A
:103AC00084F8390084F83A0000BF002084F83800F8
:103AD00000BF0320BDE8F081206800682840A842AC
:103AE00001D1012000E00020B842D3D00020F1E74E
:103AF00010B50348FFF710FE0148FEF70DFF10BD9B
:103B00004804002010B500240C48006820F48060B0
:103B10000A490860322000F007F90520FDF770F827
:103B2000322000F001F9FDF76BF904460520FDF79E
:103B300079F9642000F0F8F810BD00000C0C014089
:103B400038B5082035490870FCF739FF04460720CE
:103B5000FDF768F91E2000F0E7F80620FDF762F98E
:103B600004F0100008B1FDF73FF8642000F0DCF825
:103B70000120FDF7C3F82A48C079284908700120C0
:103B8000FDF71DF80446802026490870062048707D
:103B9000002088700220C87000200871487104203D
:103BA00088710020C87169461D48FCF75DFFC4B2EA
:103BB000142C01D0022038BD194880781949887129
:103BC0001748C078C87169461548FCF74DFFC4B264
:103BD000142C01D00220EEE71148FDF7B3F812488B
:103BE0000078FDF714F90446142C01D00220E2E716
:103BF0004FF41650FCF748FD0446142C01D0022067
:103C0000D9E70020FCF7CCFF80200849087008495C
:103C100008700220074908700020CCE7B10000209E
:103C200074460020B6000020B2000020BF00002033
:103C3000BE000020F44600202DE9F04106460F4664
:103C40000025A84622E01C20FCF7DAFF1348007884
:103C5000FDF712F8092112480078FDF765F80446CF
:103C6000142C07D008F101001FFA80F8012000F0A1
:103C70005BF80BE07019FDF7AFF8284485B20748F0
:103C8000007880F040000549087000BF381EA7F199
:103C900001018FB2D7D12846BDE8F081BE000020D7
:103CA000B400002000BFFEE702480068C0F3022015
:103CB000704700000CED00E010B5002804DB0A0797
:103CC000130E054A135406E00A07140E034A00F0C7
:103CD0000F031B1FD45410BD00E400E018ED00E0FA
:103CE00000BF7047F0B502460D46FF24FF2109E0F2
:103CF00012F8016B86EA0403094EF65C86EA0104B9
:103D0000084EF15C2E1EA5F10107FDB2F0D1084668
:103D10004FF6FF7606EA00200619B0B2F0BD0000AB
:103D2000C8560008C857000810B50446204600F0E1
:103D300079FD10BD00200149086070470000002097
:103D4000002103E0531C9AB24B1C99B28142F9DB6B
:103D50007047000000BF054A126802F04002002AC6
:103D6000F9D0C2B2014B1B1D1A60704700380140E8
:103D7000014800687047000000000020FDF7BEFF0A
:103D8000FFF792FBFFF746F9FFF7E4F8FFF73AFA7F
:103D9000FFF714FAFDF7B8F8FFF7FEF800F010F897
:103DA00000BFFEE70021842800D0C11C08467047F0
:103DB00010B5002800D1012000F034FD002010BD16
:103DC00010B500F07FFD002010BD30B585B0044671
:103DD0000D466169B4F90800002910D0A16971B1DC
:103DE000FFF7E0FF6269A1690192029100902B4602
:103DF00022692168606801F031FA049010E0FFF751
:103E0000D1FF04A901910090208A2B4682B221683B
:103E1000606801F0EDF9012802D005B0002030BD46
:103E2000049805B030BD00002DE9F04104460F466E
:103E3000194E75693068001D00F0F4FA48B9306811
:103E4000012190F82C0001FA00F0B16921EA00008C
:103E5000B061B4F1FF3F07D137B13068BDE8F04140
:103E6000011D0E4800F031BC2C4430684460AC4267
:103E700006D23068011DB068BDE8F04100F00ABC10
:103E80003068011D706800F005FC306B844200D280
:103E90003463BDE8F0810000480000206006002087
:103EA00070B5044600F01EFC1D4D2869401C2861B9
:103EB000286810B1E86938B10CE02C602869012845
:103EC00008D100F053F905E02868E16AC06A884229
:103ED00000D82C60E86A401CE8626065E06A012155
:103EE000AA6981401143A9610E4900EB800001EBF2
:103EF0008000211D00F0E9FB00F014FCE8690028B7
:103F00000CD02868E16AC06A884207D206494FF09F
:103F100080500860BFF34F8FBFF36F8F70BD0000FC
:103F2000480000207005002004ED00E070B50D4C45
:103F3000E068002815D00C4E00F0D4FBF068C5688E
:103F4000281D00F06FFA2069401E2061E068401EC5
:103F5000E06000F0E7FB284600F051F8E068002838
:103F6000EAD170BD480000204C0600200B46026CD0
:103F7000002A0CD0C1681144C160D0F804C061456A
:103F800001D30168C160C1681846FCF738BA7047B0
:103F90002DE9F041044616460027A56B226C002A45
:103FA00010D0C6B1E068FCF72AFAE168206C091A63
:103FB000E1602268914202D26168081AE060022E34
:103FC00016D017E02068A8B9606801F0EDF907463F
:103FD000002060600EE0A068FCF711FA216CA06878
:103FE0000844A0606168884204D32068A06001E0B2
:103FF00005B16D1E681CA0633846BDE8F08110B5A0
:10400000044694F86D1000290BD0012911D0022923
:1040100014D0502080F31188BFF34F8FBFF36F8F00
:10402000FEE7206B00F094FB2046BDE8104000F056
:104030008FBB2046BDE8104000F08ABB10BD0000D9
:104040004FF42051104810F0070F06D0C01D20F08B
:1040500007000D49411AC1F520510C4A1060002398
:1040600053600144083921F00701103A11604B6098
:104070000B600B1A436001604068906050604FF025
:104080000040D06070470000740600209C000020B3
:10409000074E4FF08054074DFFF748FF3068012866
:1040A000FAD92C60BFF34F8FBFF36F8FF4E7000096
:1040B0007005002004ED00E070B51D46049C002949
:1040C00009D02260E06321640121204600F04EFE09
:1040D00084F84C5070BD2460F4E72DE9F05F82460F
:1040E0000B9F0A9D0C9C0E4690469B464FEA88010A
:1040F000A522206BFCF7FAF9206BA8F1010100EB77
:10410000810020F007094FF0000800202218315CE0
:1041100082F83410315C11B1401C2028F6D384F8A9
:104120005380082D00D30725E562E565C4F860805B
:10413000201D00F0ACFA04F1180000F0A8FA246188
:10414000C5F10800A0616462C4F86480C4F86880A6
:1041500084F86C805A465146484600F051F9206078
:10416000002F00D03C60BDE8F09F000070B5002437
:104170000F4D04EB840005EB800000F07DFA641C19
:10418000082CF6D30B4800F077FA0B4800F074FACD
:104190000A4800F071FA0A4800F06EFA094800F087
:1041A0006BFA0948034941601431816070BD000019
:1041B000700500201006002024060020380600208C
:1041C0004C060020600600204800002010B414496E
:1041D00000E011460A688242FBD34B6803EB010CF6
:1041E000844503D140681844486008460C68D0F8FC
:1041F00004C00CEB0003A3420CD10A4B1B689A428B
:1042000006D05268624442600A681268026002E0A6
:10421000036000E00260814200D0086010BC70477B
:104220009C0000208C00002010B5044600F05AFAD3
:10423000A06B20B1002400F075FA204610BD0124C7
:10424000F9E710B5044600F04DFAA06BE16B884227
:1042500001D1012400E0002400F064FA204610BDE2
:10426000074948680068002805D04868C068C068E9
:104270004068086370474FF0FF30086370470000E4
:10428000480000200A484068B0F1FF3F07D05020A6
:1042900080F31188BFF34F8FBFF36F8FFEE750207D
:1042A00080F31188BFF34F8FBFF36F8FFEE70000DD
:1042B000A400002070B5044600F014FA94F94550AB
:1042C000002D0CDD606A50B104F1240001F0BAF851
:1042D00008B100F0D7FA681E45B2002DF2DC4FF0AD
:1042E000FF3684F8456000F01DFA00F0FBF994F900
:1042F0004450002D0CDD206950B104F1100001F094
:10430000A1F808B100F0BEFA681E45B2002DF2DC3B
:1043100084F84460BDE8704000F004BA2DE9F04133
:104320000546002600F014FB334F386808B9FFF744
:1043300087FEF86805424ED19DB1083515F0070F8C
:104340000FD005F00700C0F10800054415F0070F75
:1043500007D0502080F31188BFF34F8FBFF36F8FCA
:10436000FEE7002D37D07868854234D823490846C7
:10437000046801E0214604466068A84202D2206831
:104380000028F7D13868844225D0086800F1080673
:10439000206808606068411B10290FD9601910F06F
:1043A000070F07D0502080F31188BFF34F8FBFF362
:1043B0006F8FFEE741606560FFF708FF616878680E
:1043C000401A7860BA68904200D2B860F868084332
:1043D00060600020206001F071F816F0070F07D030
:1043E000502080F31188BFF34F8FBFF36F8FFEE72C
:1043F0003046BDE8F08100008C0000209C000020C9
:10440000001F4FF080730360001F21F00101016065
:10441000001F034901601438026020387047000013
:10442000854200080169436882689A60836842682F
:104430005A604A68824201D182684A600022026161
:104440000868401E08600868704710B50446002CD4
:1044500006D000F047F9A46B00F064F9204610BDC7
:10446000502080F31188BFF34F8FBFF36F8FFEE7AB
:10447000034B0360034B0B60802313607047000005
:1044800014010020840100207CB504460D462078EC
:104490008DF8000060788DF80100A0788DF802009A
:1044A0008DF803509DF800009DF8011008449DF818
:1044B000021008449DF803100844C0B28DF80400AF
:1044C00060798DF805000A23062269460148FEF747
:1044D000EFFB7CBD480400200025002400BF0A201B
:1044E000FFF766FCFEF7B0FCFEF750FC384800888A
:1044F00000F0030030BB8DB93548008800F0300073
:1045000030280BD1012210213248FDF7DEFB0125B6
:104510000122D1023048FDF7D8FB25E0022D23D13E
:104520002B48008800F03000F0B900221021294803
:10453000FDF7CBFB032500224FF400612648FDF771
:10454000C4FB11E0012D06D12148008800F03000A5
:1045500008B9022508E0032D06D11D48008800F0A7
:104560003000302800D100251948008800F00C00E8
:10457000D0B95CB9012208211648FDF7A6FB012439
:10458000012204211548FDF7A0FBA8E7022CA6D1C3
:10459000002208210F48FDF798FB03240022042184
:1045A0000E48FDF792FB9AE7012C07D108480088D6
:1045B00000F00C000C2801D1022490E7032C8ED1CE
:1045C0000348008800F00C000C2888D1002486E7FE
:1045D00004010020000C01400010014000140140C3
:1045E00008B5002400BF4FF47A70FFF7E1FB4FF4E9
:1045F00000411E48FDF762FB1D480068FFF725FFDC
:104600000446002CEFD0002269461948006800F0EB
:104610000BFD9DF80000032803D09DF8000004283E
:1046200005D1012220211348FDF74FFB04E00022B1
:1046300020211048FDF749FB9DF8010003280AD10D
:10464000002240210B48FDF740FB01228021094850
:10465000FDF73BFBC7E7012240210648FDF735FB8C
:10466000002280210348FDF730FBBCE70008014031
:104670000C000020000C014000F1080141604FF0E7
:10468000FF328260C160016100210160704700213A
:104690000161704710B4D1F800C0BCF1FF3F02D0F7
:1046A00000F1080202E0026904E01A4653681C683F
:1046B0006445FAD953684B6099608A60516008611B
:1046C0000168491C016010BC704742684A609368E9
:1046D0008B6093685960916008610168491C0160B2
:1046E00070470000502080F31188BFF34F8FBFF355
:1046F0006F8F0A494868401C486001280CD108485F
:10470000006810F0FF0F07D0502080F31188BFF32E
:104710004F8FBFF36F8FFEE770470000A4000020AB
:1047200004ED00E009494868002806D0401E4860B2
:10473000002801D180F311887047502080F3118840
:10474000BFF34F8FBFF36F8FFEE70000A400002080
:1047500070B5002827D0A0F10804134D6068E968FF
:10476000084207D1502080F31188BFF34F8FBFF369
:104770006F8FFEE722683AB1502080F31188BFF3B3
:104780004F8FBFF36F8FFEE78843606000F0E0F863
:1047900060686968084468602046FFF717FDBDE857
:1047A000704000F08BBE70BD8C0000204FF0E02008
:1047B00000210161816105494FF47A720968B1FBFA
:1047C000F2F1491E41610721016170474400002058
:1047D00010B5FBF747FD114910280ED300F1E0207A
:1047E00090F8F0030A78904207D2502080F31188A5
:1047F000BFF34F8FBFF36F8FFEE7094800688968EA
:1048000000F4E060884207D9502080F31188BFF39C
:104810004F8FBFF36F8FFEE710BD0000A400002094
:104820000CED00E010B502460020002A12D00F481F
:10483000806B38B1502080F31188BFF34F8FBFF3E6
:104840006F8FFEE700F084F800211046FFF7ECFAC6
:1048500000F034FE002807D105494FF08050086071
:10486000BFF34F8FBFF36F8F10BD000048000020D3
:1048700004ED00E002498A6A0260496941607047BC
:10488000480000200149012048627047480000208C
:1048900010B50C4600280BD0094A126802F1180125
:1048A000FFF7F8FE2046BDE810400121FFF7BCBA33
:1048B000502080F31188BFF34F8FBFF36F8FFEE757
:1048C0004800002010B586B000240594049403AA83
:1048D00004A905A8FFF7CCFD059804990191029061
:1048E0000023009416A11848039A00F0B7FC17495A
:1048F000486308B1012000E0002001280AD0B0F18F
:10490000FF3F1BD1502080F31188BFF34F8FBFF3BF
:104910006F8FFEE7502080F31188BFF34F8FBFF3F6
:104920006F8F4FF0FF3008630120C8614C61FFF7C3
:1049300001FA06B0BDE8104000F098B906B010BD0D
:1049400049444C4500000000914000084800002008
:104950000248816B491C81637047000048000020B9
:1049600010B51B4CA06B002802D00120606210BD66
:1049700000206062FFF7FCF92064E26B904204D9EA
:104980002168821A4B6E1A444A66E063A069B0FA45
:1049900080F0C0F11F000F4900EB800051F820208B
:1049A00072B101EB800041684968416000F1080282
:1049B000914201D1496841604068C068206010BDE3
:1049C000502080F31188BFF34F8FBFF36F8FFEE746
:1049D000480000207005002096B0002400224021ED
:1049E000012000F09DF95449086000220121084689
:1049F00000F096F95149086000BF0A20FFF7D8F986
:104A00004E480068FFF721FD0446002CF5D0002237
:104A100006A94948006800F007FB002205A947489D
:104A2000006800F001FB9DF81400062840D19DF8B5
:104A300018009DF8191008449DF81A1008449DF8B4
:104A40001B1008449DF81C1088426DD1062206A94F
:104A50003B48FBF7A8FC48B9012211463948FDF74D
:104A600034F9112106A8FFF70FFD5DE0062206A923
:104A70003348801DFBF797FC48B9002201213148DB
:104A8000FDF723F9112106A8FFF7FEFC4CE00622F2
:104A900006A92B483C30FBF786FC20B9112106A85B
:104AA000FFF7F2FC40E0002106A8FFF7EDFC3BE039
:104AB0009DF81400052837D1052206A92248FBF7E6
:104AC00072FC28B921A0FBF705FCFEF725FA2BE0C4
:104AD000052206A91C48401DFBF765FC18B91EA05D
:104AE000FBF7F8FB20E0052206A917480A30FBF780
:104AF0005AFC48B904221B491B48FEF71BFC194904
:104B00001AA0FBF7E7FB0FE0052206A90E480F30BD
:104B1000FBF749FC40B9042201A91348FEF7F6FB54
:104B200001A914A0FBF7D6FB00240020059040212A
:104B300006A8FBF705FD60E7040000200800002040
:104B4000F655000800100140885500087570646132
:104B500074652E2E2E0D0A00636F6D5F6F6B210D35
:104B60000A0000001000002000F8030825730D0A59
:104B7000000000005669736F6E3A25730D0A00003D
:104B800008B500240025FEF7BDFFFBF723FF002238
:104B90000221012000F0C4F82449086000BF4FF44E
:104BA0007A70FFF705F9FBF7B3FD01280ED1FEF788
:104BB000C7FF04461CB11EA0FBF78CFB02E020A03F
:104BC000FBF788FB00240120224908702248007866
:104BD000012814D1002020490870FBF7AFFD1F48C1
:104BE00000788DF800001E4800788DF80100002341
:104BF0001A4669460D48006800F000F90025681C57
:104C0000C0B205460428CADD002516480078401CBD
:104C1000C0B214490870032801DD0120087001208A
:104C20000D49087010490870B9E700000C00002019
:104C30005553425F4661696C21200D0A0000000057
:104C40005553425F5375636365737366756C2120BA
:104C50000D0A0000F8000020FC000020FA000020EF
:104C6000F9000020FD000020B000002000B583B056
:104C7000284908780290FF200870087801909DF874
:104C800004009DF8042000F0F000904207D050206E
:104C900080F31188BFF34F8FBFF36F8FFEE79DF84E
:104CA00004001D4B00F050001870072098609DF81C
:104CB000040010F0800F0BD09868401E98609DF89B
:104CC0000400400001909DF8040010F0800FF3D123
:104CD0009868032807D0502080F31188BFF34F8FC6
:104CE000BFF36F8FFEE74FF4407098600298087032
:104CF0000A48016841F470010160016841F07041A7
:104D00000160FFF753FD00205860FBF775FA03B010
:104D1000002000BD00E400E0A400002020ED00E041
:104D2000F8B505460E461746002D14D0DEB105FB3A
:104D300006F05030FFF7F2FA044654B104F1500285
:104D4000002084F846003B46314628460094FFF791
:104D5000B3F92046F8BD502080F31188BFF34F8F80
:104D6000BFF36F8FFEE70020E3E7000070B5044655
:104D70000D46002C25D0FFF7B5FC226CE16B2068B6
:104D800001FB020060600020A0632068A060E16B6E
:104D9000226C2068491E01FB0200E0604FF0FF30EA
:104DA00084F8440084F845009DB104F11000FFF739
:104DB00063FC04F12400FFF75FFCFFF7B3FC012064
:104DC00070BD502080F31188BFF34F8FBFF36F8FFA
:104DD000FEE720690028F0D004F1100000F032FB5B
:104DE0000028EAD004494FF080500860BFF34F8F8D
:104DF000BFF36F8FE1E7000004ED00E02DE9FF470E
:104E000082B004468A461F460025002C03D0BAF122
:104E1000000F08D011E0502080F31188BFF34F8FAE
:104E2000BFF36F8FFEE7206C38B1502080F31188FC
:104E3000BFF34F8FBFF36F8FFEE7022F0AD1E06BF6
:104E4000012807D0502080F31188BFF34F8FBFF3A4
:104E50006F8FFEE700F032FA48B9049838B150205D
:104E600080F31188BFF34F8FBFF36F8FFEE70026EB
:104E70004FF08058DFF8F090FFF734FCA06BE16B47
:104E8000884205D3022F03D0049808B335B329E034
:104E90003A4651462046FFF77BF8616A59B104F162
:104EA000240000F0CFFA68B1C9F80080BFF34F8F3B
:104EB000BFF36F8F06E028B1C9F80080BFF34F8FB2
:104EC000BFF36F8FFFF72EFC06B00120BDE8F0871F
:104ED000FFF728FC06B00020BDE8F0876846FFF722
:104EE000C9FC0125FFF71EFCFFF732FDFFF7FAFBB7
:104EF00094F94400B0F1FF3F01D184F8446094F983
:104F00004500B0F1FF3F01D184F84560FFF70AFC8E
:104F100004A9684600F02CF940B12046FFF7CAF911
:104F200000F0CCFA06B00020BDE8F0872046FFF77D
:104F300088F990B104F110000499FFF7A9FC20460C
:104F4000FFF7B8F900F0BAFA002895D1C9F8008047
:104F5000BFF34F8FBFF36F8F8EE72046FFF7AAF99D
:104F600000F0ACFA88E7000004ED00E02DE9F0471E
:104F70000446894617461E46002C03D0B9F1000F9F
:104F800008D011E0502080F31188BFF34F8FBFF39A
:104F90006F8FFEE7206C38B1502080F31188BFF38B
:104FA0004F8FBFF36F8FFEE7022E0AD1E06B01280F
:104FB00007D0502080F31188BFF34F8FBFF36F8F5E
:104FC000FEE7FFF705FC5020EFF3118880F311880E
:104FD000BFF34F8FBFF36F8FA06BE16B884206D397
:104FE000022E04D0002088F31188BDE8F08794F9E0
:104FF0004550324649462046FEF7CAFFB5F1FF3F0D
:1050000004D0681C84F845000120ECE7606A0028A1
:10501000FAD004F1240000F015FA0028F4D0002F93
:10502000F2D001203860EFE72DE9F74783B004465E
:105030008A460025002C03D0BAF1000F08D011E0F9
:10504000502080F31188BFF34F8FBFF36F8FFEE7BF
:10505000206C38B1502080F31188BFF34F8FBFF31D
:105060006F8FFEE700F02AF948B9059838B1502053
:1050700080F31188BFF34F8FBFF36F8FFEE70027D8
:105080004FF08058DFF8E490FFF72CFBA66BC6B119
:1050900051462046FEF76AFF701EA063206950B19A
:1050A00004F1100000F0CEF928B1C9F80080BFF378
:1050B0004F8FBFF36F8FFFF735FB06B00120BDE8C0
:1050C000F087059808B135B109E0FFF72BFB06B072
:1050D0000020BDE8F0876846FFF7CCFB0125FFF70D
:1050E00021FBFFF735FCFFF7FDFA94F94400B0F11E
:1050F000FF3F01D184F8447094F94500B0F1FF3FBF
:1051000001D184F84570FFF70DFB05A9684600F052
:105110002FF868B12046FFF7CDF800F0CFF9204610
:10512000FFF782F80028AFD006B00020BDE8F08776
:105130002046FFF779F890B104F124000599FFF7B4
:10514000A7FB2046FFF7B6F800F0B8F900289BD17E
:10515000C9F80080BFF34F8FBFF36F8F94E72046ED
:10516000FFF7A8F800F0AAF98EE7000004ED00E0D0
:1051700070B505460C46002D15D0E4B1FFF7B2FA24
:10518000DFF868C0DCF814006B68C11A2268B2F15D
:10519000FF3F18D02E68DCF828C0664515D0834242
:1051A00013D801241DE0502080F31188BFF34F8FE6
:1051B000BFF36F8FFEE7502080F31188BFF34F8F4E
:1051C000BFF36F8FFEE700240BE08A4206D9501A26
:1051D00020602846FFF74EFB002402E000202060FC
:1051E0000124FFF79FFA204670BD00004800002010
:1051F0002DE9F04F85B081460F9F0E9E8A4690465E
:105200009B464FEA8800FFF789F8054628000AD038
:105210007020FFF783F804460CB1256304E02846AC
:10522000FFF796FA00E000249CB1002084F86D009E
:1052300003905B46424651460197009602944846C9
:10524000FEF74BFF2046FEF72BFE05B00120BDE820
:10525000F08F05B04FF0FF30BDE8F08F70B586B02D
:105260000646DDF828C00C9C0B98002816D0ECB13F
:10527000702504952063022084F86D00002005ADA0
:105280000390CDF800C0019502943046FEF725FF4B
:105290002046FEF705FE059806B070BD502080F34D
:1052A0001188BFF34F8FBFF36F8FFEE7502080F35D
:1052B0001188BFF34F8FBFF36F8FFEE70548C169B9
:1052C000002903D0806B18B100207047012070477F
:1052D00002207047480000202DE9F0470026304F9B
:1052E000B86B002808D0386A401C3862786A00B170
:1052F00001263046BDE8F0877869451C7D619DB97F
:105300007868006838B1502080F31188BFF34F8F60
:10531000BFF36F8FFEE77868B9687960B860B86AE4
:10532000401CB862FEF79CFF386BDFF8788085423E
:105330000FD34FF001097868006838B17868C06809
:10534000C468606885420ED2386302E04FF0FF30D7
:1053500038633868C06A00EB800058F820000128E4
:10536000C4D90126C2E7201DFFF75CF8A06A18B176
:1053700004F11800FFF756F8E16ABA6909FA01F07A
:105380001043B86101EB810008EB8000211DFFF79D
:105390009CF9E06A3968C96A8842CCD30126CAE719
:1053A000480000207005002070B504460021002848
:1053B00041D0224D2868844207D0502080F31188C4
:1053C000BFF34F8FBFF36F8FFEE7206E38B1401EE3
:1053D0002066E36DE26A9A422DD040B12BE0502066
:1053E00080F31188BFF34F8FBFF36F8FFEE7201D4F
:1053F000FFF718F81249012258B9E06A00EB800360
:1054000051F823302BB9AB6902FA00F023EA00000F
:10541000A861E06DE062C0F10800A061E06AAB69DC
:1054200082401A43AA6100EB800001EB8000211D3D
:10543000FFF74BF90121084670BD0000480000202D
:105440007005002070B5C068C468002C14D004F149
:105450001800FEF7E7FF164DA86B0126A0B104F176
:1054600018011448FFF731F9E06A2968C96A8842CF
:105470001CD901206E6270BD502080F31188BFF3EB
:105480004F8FBFF36F8FFEE7201DFEF7CBFFE06A63
:10549000AA6906FA00F11143A961074900EB8000EF
:1054A00001EB8000211DFFF710F9DDE7002070BD42
:1054B0004800002038060020700500202DE9F04744
:1054C0000024A0462D4DA86B002807D0FFF70AF94D
:1054D000A86B401EA863A86B40B149E0502080F340
:1054E0001188BFF34F8FBFF36F8FFEE72869002845
:1054F0003ED0234F3868012600B3A7F1C809F868E9
:10550000C46804F11800FEF78DFF201DFEF78AFF26
:10551000E06AAA6906FA00F11143A96100EB800074
:1055200009EB8000211DFFF7D0F8E06A2968C96AFD
:10553000884200D36E6238680028E0D10CB1FEF7D3
:105540008FFE2C6A44B1FFF7C7FE00B16E62641E85
:10555000002CF8D100202862686A48B14FF0010899
:1055600008494FF080500860BFF34F8FBFF36F8F33
:10557000FFF7D8F84046BDE8F0870000480000205B
:105580003806002004ED00E03C0101003D3C020132
:10559000003D3C0301003D3C0401003D3C05010091
:1055A0003D3C0601003D3C0701003D3C0801003D3B
:1055B0003C0901003D3C0A01003D3C0B01003D3C23
:1055C0000C01003D3C0D01003D3C0E01003D3C0F37
:1055D00001003D3C1001003D3C1101003D3C120129
:1055E000003D3C1301003D3C1401003D3C15010011
:1055F0003D3C1601003D1B1001002C1D1B1101003C
:105600002D1D1B1201002E1D1B1301002F1D1B142D
:105610000100301D1B150100311D1B160100321D3C
:105620001B170100331D1B180100341D1B1901003D
:10563000351D1B1A0100361D1B1B0100371D000004
:10564000D4580008E1450008FDFF000000000000FC
:10565000800000000000000000000000E458000886
:10566000D9440008FEFF0000000000008000000098
:105670000000000000000000C8580008814B00082E
:105680000000000000000000000100000000000019
:1056900000000000DC580008D9490008FFFF0000A6
:1056A00000000000000100000000000000000000F9
:1056B00000000000000000000102030406070809C2
:1056C000000000000102030400C1814001C08041CC
:1056D00001C0804100C1814001C0804100C18140C2
:1056E00000C1814001C0804101C0804100C18140B2
:1056F00000C1814001C0804100C1814001C08041A2
:1057000001C0804100C1814001C0804100C1814091
:1057100000C1814001C0804100C1814001C0804181
:1057200001C0804100C1814000C1814001C0804171
:1057300001C0804100C1814001C0804100C1814061
:1057400000C1814001C0804101C0804100C1814051
:1057500000C1814001C0804100C1814001C0804141
:1057600001C0804100C1814000C1814001C0804131
:1057700001C0804100C1814001C0804100C1814021
:1057800000C1814001C0804100C1814001C0804111
:1057900001C0804100C1814001C0804100C1814001
:1057A00000C1814001C0804101C0804100C18140F1
:1057B00000C1814001C0804100C1814001C08041E1
:1057C00001C0804100C1814000C0C101C30302C2C9
:1057D000C60607C705C5C404CC0C0DCD0FCFCE0E31
:1057E0000ACACB0BC90908C8D81819D91BDBDA1AA1
:1057F0001EDEDF1FDD1D1CDC14D4D515D71716D611
:10580000D21213D311D1D010F03031F133F3F23280
:1058100036F6F737F53534F43CFCFD3DFF3F3EFEF0
:10582000FA3A3BFB39F9F83828E8E929EB2B2AEA60
:10583000EE2E2FEF2DEDEC2CE42425E527E7E626D0
:1058400022E2E323E12120E0A06061A163A3A26240
:1058500066A6A767A56564A46CACAD6DAF6F6EAEB0
:10586000AA6A6BAB69A9A86878B8B979BB7B7ABA20
:10587000BE7E7FBF7DBDBC7CB47475B577B7B67690
:1058800072B2B373B17170B0509091519353529200
:1058900096565797559594549C5C5D9D5F9F9E5E70
:1058A0005A9A9B5B99595898884849894B8B8A4AE0
:1058B0004E8E8F4F8D4D4C8C448485458747468650
:1058C0008242438341818040557362436F6E74729C
:1058D0006F6C00004C656452756E00005561727407
:1058E000000000004B657900085900080000002006
:1058F000140100006C0100081C5A0008140100206B
:105900004C4D00008801000800000000000000006D
:10591000000000000000000056312E3020323032EE
:10592000343031323200000000000000000000007E
:105930000000000000000000000000000000000067
:105940000000000010000000010000000024F4002E
:105950000000000000000000000000000000000047
:105960000000000000000000000000000000000037
:105970000000000000000000000000000000000027
:105980000000000000000000000000000000000017
:105990000000000000000000000000000000000007
:1059A00000000000000000000000000000000000F7
:1059B000AAAAAAAA0000000001000000000000003E
:1059C000000000000000808001032AF800010DE3C0
:1059D00001032EE200012D1401032B1000018C2B7A
:1059E00001062B160001A02A01062B290032D03314
:1059F00001062B2A0001602601062B24000101E587
:105A0000000002000100000000000000FF00FFFF96
:0C5A1000FFFFFFFFFFFFFFFF0000000092
:0400000508000131BD
:00000001FF
